:020000040800F2
:1000000000000220010A0008FD090008C5A600083A
:10001000FD090008FD090008FD09000800000000B6
:10002000000000000000000000000000FD090008C2
:10003000FD09000800000000FD09000849A60008AD
:10004000FD090008FD090008FD090008FD09000878
:10005000FD090008FD090008FD090008FD09000868
:10006000FD090008FD090008FD090008D18200080B
:10007000DD820008396D0008E9820008F582000879
:10008000B19F000801780008FD090008FD0900087B
:10009000FD090008FD090008FD090008FD09000828
:1000A000FD090008FD090008FD090008FD09000818
:1000B000516D01085D6D0108696D01083578000812
:1000C000FD09000841780008FD090008A98E000814
:1000D000B58E0008E59D0008119E0008459E0008A9
:1000E000FD090008FD09000800000000FD090008E6
:1000F000FD090008FD090008FD090008FD090008C8
:10010000FD090008FD090008756D0108C18E000891
:10011000799E0008AD9E000805700008FD090008E2
:10012000ED6F0008F96F0008E58E0008198F0008D0
:10013000E59F0008FD090008FD090008FD09000809
:1001400000000000000000000000000000000000AF
:10015000FD090008FD090008FD090008E19E0008EE
:100160004D780008FD09000859A600087DA6000882
:10017000FD090008A1A60008FD090008FD09000806
:10018000FD090008FD090008159F0008499F0008A7
:10019000CD8E0008D98E0008FD090008FD09000871
:1001A000FD090008FD090008FD090008FD09000817
:1001B000F17F0008FD090008FD090008FD0900089D
:1001C000FD090008FD090008CD6A0108D96A010887
:1001D000FD090008E56A0108FD090008FD0900089D
:1001E000FD090008FD090008FD090008FD090008D7
:1001F000FD090008FD090008FD090008FD090008C7
:10020000FD090008FD090008FD090008FD090008B6
:10021000FD090008FD090008FD090008FD090008A6
:10022000FD090008FD090008FD09000800000000A4
:10023000FD090008FD09000800000000FD09000894
:10024000FD090008FD090008FD090008FD09000876
:10025000FD090008FD090008FD090008FD09000866
:10026000FD090008FD090008FD090008FD09000856
:10027000FD090008FD0900087D9F0008000000003E
:10028000FD090008FD090008FD0900080000000044
:0802900000000000FD09000858
:1002A00010B5054C237833B9044B13B10448AFF3B0
:1002B00000800123237010BDF00600240000000020
:1002C000D8A8010808B5034B1BB103490348AFF395
:1002D000008008BD00000000F4060024D8A8010832
:1002E00001F0FF01102A2BDB10F0070F08D010F8E7
:1002F000013B013A8B422DD010F0070F42B3F6D1EB
:10030000F0B441EA012141EA014122F007047FF003
:1003100000070023F0E80256083C85EA010586EA5A
:10032000010685FA47F5A3FA87F586FA47F6A5FA96
:1003300087F68EB9EED1F0BC01F0FF0102F00702A2
:1003400032B110F8013B013A83EA010313B1F8D14D
:100350000020704701387047002D06BF354603382E
:10036000073815F0010F07D1013015F4807F02BF67
:10037000013015F4C03F0130F0BC0138704700BFB8
:1003800081F0004102E000BF83F0004330B54FEA46
:1003900041044FEA430594EA050F08BF90EA020FB3
:1003A0001FBF54EA000C55EA020C7FEA645C7FEA46
:1003B000655C00F0E2804FEA5454D4EB5555B8BF69
:1003C0006D420CDD2C4480EA020281EA030382EADA
:1003D000000083EA010180EA020281EA0303362D6C
:1003E00088BF30BD11F0004F4FEA01314FF4801C3F
:1003F0004CEA113102D0404261EB410113F0004F51
:100400004FEA03334CEA133302D0524263EB430307
:1004100094EA050F00F0A780A4F10104D5F1200EA5
:100420000DDB02FA0EFC22FA05F2801841F1000100
:1004300003FA0EF2801843FA05F359410EE0A5F1D4
:1004400020050EF1200E012A03FA0EFC28BF4CF005
:10045000020C43FA05F3C01851EBE37101F00045BB
:1004600007D54FF0000EDCF1000C7EEB00006EEBC8
:100470000101B1F5801F1BD3B1F5001F0CD3490852
:100480005FEA30004FEA3C0C04F101044FEA4452A9
:1004900012F5800F80F09A80BCF1004F08BF5FEA30
:1004A000500C50F1000041EB045141EA050130BD10
:1004B0005FEA4C0C404141EB0101013C28BFB1F522
:1004C000801FE9D291F0000F04BF01460020B1FA6D
:1004D00081F308BF2033A3F10B03B3F120020CDA40
:1004E0000C3208DD02F1140CC2F10C0201FA0CF01E
:1004F00021FA02F10CE002F11402D8BFC2F1200C83
:1005000001FA02F120FA0CFCDCBF41EA0C01904038
:10051000E41AA2BF01EB0451294330BD6FEA040481
:100520001F3C1CDA0C340EDC04F11404C4F120026C
:1005300020FA04F001FA02F340EA030021FA04F37E
:1005400045EA030130BDC4F10C04C4F1200220FAD5
:1005500002F001FA04F340EA0300294630BD21FA13
:1005600004F0294630BD94F0000F83F4801306BFD9
:1005700081F480110134013D4EE77FEA645C18BFCD
:100580007FEA655C29D094EA050F08BF90EA020F64
:1005900005D054EA000C04BF1946104630BD91EA5C
:1005A000030F1EBF0021002030BD5FEA545C05D15F
:1005B0004000494128BF41F0004130BD14F580049E
:1005C0003CBF01F5801130BD01F0004545F0FE4112
:1005D00041F470014FF0000030BD7FEA645C1ABF47
:1005E000194610467FEA655C1CBF0B46024650EA7E
:1005F000013406BF52EA033591EA030F41F40021AA
:1006000030BD00BF90F0000F04BF0021704730B52F
:100610004FF4806404F132044FF000054FF0000104
:1006200050E700BF90F0000F04BF0021704730B5C5
:100630004FF4806404F1320410F0004548BF40429A
:100640004FF000013EE700BF42004FEAE2014FEAEF
:1006500031014FEA02701FBF12F07F4393F07F4FCA
:1006600081F06051704732F07F4208BF704793F0CD
:100670007F4F04BF41F40021704730B54FF46074E0
:1006800001F0004521F000411CE700BF50EA0102E3
:1006900008BF704730B54FF000050AE050EA01028C
:1006A00008BF704730B511F0004502D5404261EBFC
:1006B00041014FF4806404F132045FEA915C3FF43D
:1006C000D8AE4FF003025FEADC0C18BF03325FEADA
:1006D000DC0C18BF033202EBDC02C2F1200300FA8B
:1006E00003FC20FA02F001FA03FE40EA0E0021FAB0
:1006F00002F11444BDE600BF53B94AB9002908BF4E
:1007000000281CBF4FF0FF314FF0FF3000F074B9EC
:10071000ADF1080C6DE904CE00F006F8DDF804E058
:10072000DDE9022304B070472DE9F047089D044637
:100730008E46002B4DD18A42944669D9B2FA82F294
:1007400052B101FA02F3C2F1200120FA01F10CFAD0
:1007500002FC41EA030E94404FEA1C48210CBEFB08
:10076000F8F61FFA8CF708FB16E341EA034306FB91
:1007700007F199420AD91CEB030306F1FF3080F020
:100780001F81994240F21C81023E63445B1AA4B26D
:10079000B3FBF8F008FB103344EA034400FB07F70F
:1007A000A7420AD91CEB040400F1FF3380F00A8150
:1007B000A74240F207816444023840EA0640E41B45
:1007C00000261DB1D4400023C5E900433146BDE8F1
:1007D000F0878B4209D9002D00F0EF800026C5E993
:1007E000000130463146BDE8F087B3FA83F6002EAB
:1007F0004AD18B4202D3824200F2F980841A61EB23
:10080000030301209E46002DE0D0C5E9004EDDE740
:1008100002B9FFDEB2FA82F2002A40F09280A1EB28
:100820000C014FEA1C471FFA8CFE0126200CB1FB7D
:10083000F7F307FB131140EA01410EFB03F0884276
:1008400008D91CEB010103F1FF3802D2884200F203
:10085000CB804346091AA4B2B1FBF7F007FB101195
:1008600044EA01440EFB00FEA64508D91CEB040433
:1008700000F1FF3102D2A64500F2BB800846A4EB8E
:100880000E0440EA03409CE7C6F12007B34022FA79
:1008900007FC4CEA030C20FA07F401FA06F31C43A8
:1008A000F9404FEA1C4900FA06F3B1FBF9F8200CB5
:1008B0001FFA8CFE09FB181140EA014108FB0EF0FB
:1008C000884202FA06F20BD91CEB010108F1FF3A4B
:1008D00080F08880884240F28580A8F10208614457
:1008E000091AA4B2B1FBF9F009FB101144EA014165
:1008F00000FB0EFE8E4508D91CEB010100F1FF3410
:100900006CD28E456AD90238614440EA0840A0FBA7
:100910000294A1EB0E01A142C846A64656D353D07D
:100920005DB1B3EB080261EB0E0101FA07F722FAA1
:1009300006F3F1401F43C5E9007100263146BDE8CA
:10094000F087C2F12003D8400CFA02FC21FA03F32D
:10095000914001434FEA1C471FFA8CFEB3FBF7F0AE
:1009600007FB10360B0C43EA064300FB0EF69E42D3
:1009700004FA02F408D91CEB030300F1FF382FD26C
:100980009E422DD9023863449B1B89B2B3FBF7F614
:1009900007FB163341EA034106FB0EF38B4208D9ED
:1009A0001CEB010106F1FF3816D28B4214D9023E2E
:1009B0006144C91A46EA004638E72E46284605E74C
:1009C0000646E3E61846F8E64B45A9D2B9EB02081D
:1009D00064EB0C0E0138A3E74646EAE7204694E7AD
:1009E0004046D1E7D0467BE7023B614432E73046E0
:1009F00009E76444023842E7704700BFFEE700BFE2
:100A00000B480C4A904203D0121A0B4917F07AFA9D
:100A10000A480B4A904203D0121A002117F080FABC
:100A20000AF0B6F817F042FA02F046FCFEE700BF03
:100A300000000024F00600240CA90108F0060024A0
:100A4000E4120224704700BF704700BF49424FF4D0
:100A500080621430C9B217F063BA00BF40207047FB
:100A600080207047704700BF10B5044640F2144123
:100A700016F031FE204610BD1BB913690BB1D268C8
:100A800018477047B9B30144F0B51546A5B002F157
:100A90002407441E4E1E01E0A6422AD014F8011F6E
:100AA0006A46384605F0C2FC0028F5D0D5F8C4C027
:100AB00090226946D5E93203C31A00F1010E00EB1A
:100AC000C00048BF63440CF1FF3C9C45E4D0D5F81E
:100AD000C030C5F8C8E003EB001017F013FAD5E9F1
:100AE00031239342A3EB020328BFC5F8C830A642C6
:100AF000D4D125B0F0BD7047B9B30144F0B5154667
:100B0000A5B002F10807441E4E1E01E0A6422AD0FD
:100B100014F8011F6A46384605F088FC0028F5D015
:100B2000D5F8A8C090226946D5E92B03C31A00F175
:100B3000010E00EBC00048BF63440CF1FF3C9C4534
:100B4000E4D0D5F8A430C5F8ACE003EB001017F002
:100B5000D9F9D5E92A239342A3EB020328BFC5F8AC
:100B6000AC30A642D4D125B0F0BD70472DE9F0419C
:100B7000B02482B000F1080600F1100500F114085D
:100B8000002728468DF807400134394606F0E4FC7A
:100B9000642301220DF107013046E4B208F0EAFBBC
:100BA000394628468DF8077006F0D6FC01226423EA
:100BB0000DF10701304608F0DDFB102339462846C9
:100BC0008DF8073006F0C8FC642301220DF10701FF
:100BD000304608F0CFFB0121284606F0BDFC8022FC
:100BE000414664233046904408F0C4FBB82CC7D17A
:100BF00002B0BDE8F08100BFF0B5B34D83B0284628
:100C000009F09AFB002800F0FF80A5F59474D4E960
:100C10007863F11A00290A461EDB12B39E424ED0B9
:100C200003EBC302D4F8D8510133D4F8DC7105EBDF
:100C30000211BB424FEA0212087AAA5C91F809C07D
:100C4000C4F8E43102D3DB1BC4F8E431012A65D0D7
:100C5000002ADED1F11A33E0D4F8DC210A44002A5C
:100C6000DCD19A4805F0A0FD002800F0BF80984C28
:100C7000D4E92B63F01A0028014668DB00296BD009
:100C80009E426BD003EBC301D4F8A4000133D4F827
:100C9000A85000EB0112AB424FEA011192F808C0D4
:100CA000415C577AC4F8B03002D35B1BC4F8B03053
:100CB000012900F083800029DCD1F01A50E00020E7
:100CC000844F3C25002204E00132072AA2D017F805
:100CD000015BA842F8D1804D100105EB0212577854
:100CE000C7B1D2ED037A9FED7D7AF4EEC77AF1EECB
:100CF00010FA05D517781FB1D77887F00107D7709C
:100D00009FED767AF4EEC77AF1EE10FA02DB2A183C
:100D100001275772054400226A707BE76D4D3C2124
:100D2000002205E00132072A3FF473AF15F8011BDA
:100D30008842F7D1BCF1000F7DD06749002001EB5C
:100D400002120121D06051701172F11A62E7D4F8D9
:100D5000A8100144002993D103B0F0BD4FF0000C5E
:100D60005C4D00213C2204E00131072983D015F8B5
:100D7000012B6245F8D1584D0A0105EB01114F785E
:100D8000C7B1D1ED037A9FED557AF4EEC77AF1EE53
:100D900010FA05D50F781FB1CF7887F00107CF7013
:100DA0009FED4E7AF4EEC77AF1EE10FA02DBA91845
:100DB00001274F72154400226A705CE74548002203
:100DC0003C2105E00132072A3FF454AF10F8011B23
:100DD0008C45F7D1002F52D03F49F01A01EB021297
:100DE0000121517011720021D16044E73C48A0F10B
:100DF000080405F0D3FB201D05F0DAFC2246394932
:100E0000201D05F0C7FC33E705F11400A5F5947427
:100E100005F0C4FBA5F11002334B28461421C4E9A8
:100E20004D2309F0E3FB314B2846D4E94B120095E2
:100E300009F0F8F9EBE6284D110105EB02125078A4
:100E4000C0B1D2ED037A9FED257AF4EEC77AF1EEC8
:100E500010FA05D5107818B1D07880F00100D07064
:100E60009FED1E7AF4EEC77AF1EE10FA02DB6A18F3
:100E700001205072294400224A70F11ACAE6164D28
:100E8000110105EB02125078C0B1D2ED037A9FED4B
:100E9000137AF4EEC77AF1EE10FA05D5107818B18E
:100EA000D07880F00100D0709FED0C7AF4EEC77A14
:100EB000F1EE10FA02DB6A18012050720D44002294
:100EC000F01A6A70D7E600BF64080024E09D002491
:100ED000DC9D002481940108040000240000964356
:100EE000E49D0024F90A0008850A0008790A000830
:100EF000B5EEC02B30B5F1EE10FA2DED048B83B0BA
:100F0000019240F2518131EE007BB4EEC27BF1EEF2
:100F100010FA0DDB37EE427BB4EEC72BF1EE10FA80
:100F2000F8D9B5EEC07BF1EE10FA06D537EE027BAC
:100F3000B5EEC07BF1EE10FAF8D4FDEEC76B006899
:100F400016EE902AFCEEC26B551E02F1010E16EE53
:100F500090CA06EE902A02F1020400EB4202B8EEBB
:100F6000E66B37EE467BB7EEC77B00F12A81F4458E
:100F7000B2F90020DFED9B5AF6EE004AD8BFAEEB87
:100F80000C0E05EE102A30F91520A44530F91EE0AC
:100F9000B8EEC55A06EE902AD8BFA4EB0C0407EEB3
:100FA00090EAF8EEE66A30F91420F8EEE77A06EEF9
:100FB000102A67EEA57AB8EEC66AB0EE674AD5EE9B
:100FC000257A26EE256AA6EEE54AA5EE656AF0EEDC
:100FD000676AE4EE246A77EEA67AE6EE247A36EEC5
:100FE000A78A97EE878A28EE078AA4EE248A28EE3D
:100FF000078AA5EE258A002B00F0BE800029C0F2EA
:10100000C180DDED016A33EE417BB8EEE64BB4EE14
:10101000C47BF1EE10FA40F1AF8087EE049B33EE13
:10102000444B31EE444BB7EEC99BB5EEC02BF1EE0D
:1010300010FA40F2CE8034EE006BB4EEC62BF1EE27
:1010400010FA0DD836EE426BB4EEC62BF1EE10FA64
:10105000F8D9B5EEC06BF1EE10FA06D536EE026B9C
:10106000B5EEC06BF1EE10FAF8D4FDEEC67B17EECC
:10107000903AB8EEE77B5C1E03F1010136EE476B58
:1010800003F1020200EB4303B7EEC66B00F1A88048
:101090008C45B3F90030DFED535AF6EE004AD8BF65
:1010A000A1EB0C0105EE103A30F91430944530F9FB
:1010B0001110B8EEC55A07EE903AD8BFA2EB0C0259
:1010C00007EE101ADFED483AF8EEE77A30F9123001
:1010D000B8EEC77A06EE903AB4EEE39A27EE257A98
:1010E000F8EEE66AF1EE10FAB0EE474A95EE257A90
:1010F00066EEA56AA7EEE54AE5EE656AF0EE477A88
:10110000E4EE247A37EE277AA6EEA47A77EE878A81
:10111000D7EE068A68EE868AE4EE248A68EE868A2E
:10112000E5EE258A52D9F7EE007AB4EEE79AF1EEB1
:1011300010FA07DA9FED2D0A29EE000A16F094FD49
:1011400028EE008AF7EE007A9FED277A37EEC99AEB
:10115000B4EEC79AF1EE10FA35D9B4EEE79AF1EE93
:1011600010FA07DA9FED210A29EE000A16F07CFD3D
:1011700068EE808A38EE288AB0EE480A03B0BDECEB
:10118000048B30BDDDED017AB8EEE74BB4EEC41B45
:10119000F1EE10FAF0D581EE049B33EE444B34EEC1
:1011A000014BB7EEC99B40E7FCEEC27B00689FEDA8
:1011B0000E7A022402464FF0010E17EE90CA4FF04D
:1011C000FF356544D3E668EE878AD3E728EE238AA5
:1011D000B8E70346022201219FED036A4FF0FF3476
:1011E000644455E70000003800000000DB0FC93FF1
:1011F0007F291ED83F2A1CD86BB1D3084FF0010CB1
:1012000002F0070201EBC3130CFA02F2C1180B7DC6
:101210001A430A757047D3084FF0010C02F0070219
:1012200001EBC3130CFA02FCC1180A7D22EA0C027E
:101230000A7570472DE9F04F83B05C1A0C9E002CA4
:101240009DF83490A6EB0208B8BF6442B8F1000FD5
:10125000B8BFC8F100088B428CBF4FF0010A4FF0B5
:10126000FF3A9642A4EB080C51D84FF0FF357F2B84
:10127000019512D83F2E10D8F50806F0070E012769
:1012800003EBC5150544B9F1000F47D007FA0EF777
:1012900095F814E047EA0E072F75964201D18B426C
:1012A00029D0C8F100077F2914D83F2A12D8D508C1
:1012B00002F0070B4FF0010E01EBC5150544B9F123
:1012C000000F1BD00EFA0BFE95F814B04EEA0B0E71
:1012D00085F814E0B7EB4C0F4FEA4C0502DAACEBA3
:1012E000080C5144AC4202DD019DA4442A449942B9
:1012F000D9D19642D7D103B0BDE8F08F0EFA0BFBDF
:1013000095F814E02EEA0B0E85F814E0E2E70125CB
:101310007F2B0195C5D83F2EAED9C2E707FA0EFE46
:101320002F7D964227EA0E072F75B8D0B9E700BF88
:101330002DE9F04F2DED068B83B01F4680460D46FC
:101340009DF8503016460193139B002BC0F221826A
:10135000129A134406EE103ADDED127AB8EEC66B1F
:101360009FEDCD4BB8EEE77B9FEDCD5B27EE047B89
:1013700026EE046B87EE050B86EE05ABF7EEC08B11
:10138000B0EE680A16F0ACF907EE907AB7EECAAB89
:10139000F8EE679AB0EE408AB0EE680A16F064FC88
:1013A00060EE698AB0EE4A0A16F09AF9B0EE409AF9
:1013B000B0EE4A0A16F058FC20EE690A29EE888A37
:1013C00029EE899A70EE687AF0EE006A39EE487A72
:1013D00067EEA77AE7EE077AF4EEE67AF1EE10FA16
:1013E00006D5139BB42B40F396804FF0010901E022
:1013F0004FF00009012478424FF0000C0095E31BE8
:10140000214627462246A340B9F1000F6AD1424245
:1014100006EE90CACCF1000107EE102AB8EEE66A9B
:1014200007EE901A06EE900AB8EEC77A139A66EEA7
:10143000084AF8EEE77AB42A27EE284AF8EEE66A78
:1014400067EE885A74EEC43A26EEA85A26EE096A68
:1014500066EE806A67EE897A27EE007AF5EEC03A8A
:1014600040F3F280F1EE10FA00F17F8176EE473A18
:1014700074EEC54AF5EEC03AF1EE10FAF5EEC04A48
:10148000CCBF01220022F1EE10FA00F1778136EE96
:10149000666A35EEC55AB5EEC06AF1EE10FAB5EEE1
:1014A000C05ACCBF01210021F1EE10FA00F16F818A
:1014B00077EEE66AF5EEC06AF1EE10FACCBF0127CE
:1014C000002775EEC45AF5EEC05AF1EE10FA00F19D
:1014D000478177EEC77AF5EEC07AF1EE10FACCBF0D
:1014E00001240024002A40F08A80002964D1BFB979
:1014F000C4BB9C4558DB0CF1010C03EB4C0E1CEB00
:10150000000F0EF1010E00F0C08098424FDB7346D1
:1015100000287FF779AF03B0BDEC068BBDE8F08FF4
:10152000009DA6EB0C0E00EB050ABAF17F0FDFD889
:10153000BEF13F0FDCD84FEADE0B019D0AEBCB1A60
:10154000002D00F0B1800EF0070BC2444FF0010EE9
:101550000EFA0BFE9AF814B04EEA0B0E8AF814E05D
:10156000002CC6D0009DA6EB0C0EA5EB000ABAF12C
:101570007F0FBED8BEF13F0FBBD84FEADE0B019DF7
:101580000AEBCB1A002D00F0AE800EF0070BC24420
:101590004FF0010E9C450EFA0BFE9AF814B04EEA7D
:1015A0000B0E8AF814E0A6DA98429E46AFDA0130B4
:1015B0000EEB40030133ABE7009D0CEB060E00EB96
:1015C000050ABAF17F0F92D8BEF13F0F8FD84FEACC
:1015D000DE0B019D0AEBCB1A002D73D00EF0070B2A
:1015E000C2444FF0010E0EFA0BFE9AF814B04EEA08
:1015F0000B0E8AF814E0002F3FF47AAF90E7009DBD
:101600000CEB060EA5EB000ABAF17F0F3FF66DAFAB
:10161000BEF13F0F3FF669AF4FEADE0B019D0AEBCB
:10162000CB1A002D6DD00EF0070BC2444FF0010E07
:101630000EFA0BFE9AF814B04EEA0B0E8AF814E07C
:1016400000293FF454AFB7E7F1EE10FA7ED44A46D2
:1016500074EEC54AF5EEC04AF1EE10FA6CD40021E2
:1016600035EEC55AB5EEC05AF1EE10FA5AD400273D
:1016700075EEC45AF5EEC05AF1EE10FA3FF529AFF7
:101680000024002A3FF431AFB9E798428FDB0023F2
:101690003BE700BFAFF300807A008BFCFA210940E2
:1016A0000000000000806640C2444FF0010B0EF0C5
:1016B000070E0BFA0EFE9AF814B02BEA0E0E8AF8FB
:1016C00014E015E7C2444FF0010B0EF0070E0BFAC1
:1016D0000EFE9AF814B02BEA0E0E8AF814E0002FD2
:1016E0003FF406AF1CE7C2444FF0010B0EF0070EAB
:1016F0000BFA0EFE9AF814B02BEA0E0E8AF814E0DC
:10170000F7E6C2444FF0010B0EF0070E0BFA0EFE87
:101710009AF814B02BEA0E0E8AF814E000293FF470
:10172000E6AE49E777EEE66AF5EEC06AF1EE10FA4A
:10173000CCBF012700279BE736EE666AB5EEC06A8C
:10174000F1EE10FACCBF0121002189E776EE473A8D
:10175000F5EEC03AF1EE10FACCBF0122002277E795
:101760000124002A3FF4C1AE49E774EEC54A0122C4
:10177000F5EEC04AF1EE10FA7FF589AE35EEC55AA6
:101780000121B5EEC05AF1EE10FA7FF591AE0127B6
:1017900097E6DDE91223134406EE102A1293139BF9
:1017A0005B421393D8E500BF2DE9F04F89B008AC38
:1017B0009DF84870019104E90C000B78002B00F0B3
:1017C000AB801A469DF818809DF8193006464546AC
:1017D00090460393079B0593A8F12004E3B25E2B88
:1017E00000F29E8033685E4ADB68934240F09B8043
:1017F0008020B3882B44834200F392803368594A97
:101800009B68934240F092804020F188039A0291B5
:101810008B18834200F38480002A00F0918002FB41
:1018200004F46FF00049059BA1441444B6F804B0D9
:1018300003EB4909023BCDF8108003EB44030C464F
:101840009A4639F802CFA5B304F007034FF0010E12
:10185000E20859460EFA03FE0BF114034FFA8EFE0E
:1018600003EBC21200236FEA0E0832440DE07F2919
:1018700006D83F2C04D8107897B14EEA00001070BB
:10188000013301320131AB4213D00CFA03F00004F2
:10189000EDD47F29F4D83F2CF2D81078002FECD06B
:1018A000013308EA000001320131AB4202F8010CB9
:1018B000EBD1D14504F10104C3D1DDF810803268C9
:1018C0000BEB05042649D368A4B28B4234D18020A7
:1018D000844204D3D36822498B423AD17F2493684F
:1018E000204AB480934224D14020029B834206D3F5
:1018F00033681C4A9B68934225D13F230293029B85
:10190000F380019B1878404507D113F8018F0193AC
:10191000B8F1000F7FF460AF002009B0BDE8F08F90
:101920004FF00008EDE73046984762E730469847A9
:101930006BE730469847D8E7304698473268C7E7A4
:10194000B6F804B0BBE730469847013883B202933B
:10195000D5E7304698470138326884B2BFE700BF08
:10196000610A00085D0A00082DE9F04F964683B031
:1019700006461F461EF8014B91460D460C9B0D98DE
:101980009DF83880002C00F010814FF0000C1EF8FC
:10199000014B0CF1010C002CF9D11FFA8CFC3C78A6
:1019A0007A7814FB0CFC11B20FFA8CFC2CEAEC7C5C
:1019B000082800F2E580DFE800F04A5DBAD17484BF
:1019C0009DA405009A88B3F800A09244B3F90620BC
:1019D000AAEB0C0A002A1FFA8AFA49DB5C88F1801C
:1019E00004EB6204A6F804C0A6F800A0A4EB510121
:1019F0008CB274802B68DFF8D4B1DA685A454CD1C8
:101A00008020504505D8DA685A4540F0D5804FF01F
:101A10007F0A9B68A5F804A0DFF8B4A1534540F005
:101A2000C1804020A04205D82B689B68534540F0F8
:101A3000BE803F24EC804946CDF80080284697E8D8
:101A40000C00FFF7B1FE304603B0BDE8F08FB3F9EC
:101A50000420B3F800A0002AB8BF01320AEB620AE2
:101A6000B3F90620AAEB6C0A002A1FFA8AFAB5DA43
:101A70000132B3E7B3F900A0B3F902402B68DFF8F5
:101A80004CB1DA68A6F800A01FFA8AFA5A457480A9
:101A9000A6F804C0A4B2F180B2D0284690472B68C3
:101AA000AFE75C88D888B3F900A00444A6F804C066
:101AB000A6F800A01FFA8AFAA21AF18094B27480E4
:101AC00098E7B3F90400B3F800A00028B8BF0130CC
:101AD0000AEB600AAAEB6C0A5C881FFA8AFADB88B8
:101AE000A6F804C01C44F180A6F800A0A21A94B283
:101AF00074807FE7B3F800A098888244AAEB0C0AB0
:101B0000EAE7B3F906205C88002AB3F900A0F18067
:101B1000B8BF0132A6F800A0A6F804C01FFA8AFADE
:101B200004EB6204A4EB51018CB2748062E7B3F958
:101B30000420B3F800A0002AB3F90240A6F804C0BC
:101B4000B8BF01327480F180A4B20AEB620AAAEB3A
:101B50006C0C1FFA8CFAA6F800A04BE7B3F800A0B3
:101B60009A88B3F902409244A6F804C07480A4B2E3
:101B7000AAEB0C0CF1801FFA8CFAA6F800A039E74A
:101B80002B680024DFF844B0DA6834805A4574804A
:101B9000B480F48017D19B68DFF834A0AC80534543
:101BA0003FF448AF284698473CE7A446F7E6284666
:101BB0009847013884B23DE72846904701382B68A2
:101BC0001FFA80FA25E7A24667E700BF610A00080E
:101BD0005D0A00082DE9F04F85B0A1F1200504ACA5
:101BE0009DF83870009104E90C00EBB25E2B00F216
:101BF0009580036880465D4ADB689DF80840934203
:101C00009DF8096040F094808020B8F804302344A7
:101C1000834200F38380D8F80030554A9B68934292
:101C200040F088804020B8F8062093190192834242
:101C300074DC002E00F0898006FB05F56FF0004093
:101C4000039B964628442E44B8F804A003EB4000BA
:101C5000023B03EB460B30F8026FBCB30EF00703F8
:101C60004FF0010C4FEADE0251460CFA03FC0AF178
:101C700014034FFA8CFC03EBC21200236FEA0C0929
:101C800042440EE07F2907D8BEF13F0F04D81578F3
:101C90009FB14CEA050515700133013201319C42B8
:101CA00014D006FA03F52D04ECD47F29F4D8BEF144
:101CB0003F0FF1D81578002FEBD0013309EA050565
:101CC000013201319C4202F8015CEAD158450EF123
:101CD000010EC0D1D8F8003054442449DA68A4B2C7
:101CE0008A422DD1802084421CD29B68204AA8F8C9
:101CF0000440934221D14020019B834207D3D8F86E
:101D000000301B4A9B68934229D13F230193DDE9B0
:101D10000003A8F8063005B0BDE8F08F002005B03C
:101D2000BDE8F08FDA6811498A4211D17F24DCE7DF
:101D300098476AE74046984775E740469847DBE78B
:101D400040469047D8F80030CDE7B8F804A0C1E786
:101D5000404690470138D8F8003084B2C5E7404685
:101D60009847013883B20193D1E700BF610A0008A8
:101D70005D0A00082DE9F04F87B09DF84850109C8F
:101D80002E4601959DF844509EB399422ED899460F
:101D9000A24228D87F29164694BF0023012308E0D9
:101DA0009CF814804EEA080E8CF814E00136B44218
:101DB00019D33F2EFAD8002BF8D14FEAD60C06F0F3
:101DC000070E4FF0010801EBCC1C08FA0EFE84440C
:101DD000002DE5D19CF814B001362BEA0E0AB4426E
:101DE0008CF814A0E5D201318945D1D207B0BDE805
:101DF000F08FA3EB0108B8F1000FB8BFC8F10008DD
:101E00009942C0F04E817F2B4FF0FF3A94BF0026DD
:101E100001263F2A009694BF002701270297A6B902
:101E20009FB9D60802F0070C012703EBC61606443B
:101E3000002D00F0948107FA0CF796F814C047EAD9
:101E40000C073775002602960096994200F097819C
:101E5000464694468E46BEF17F0F16D8BCF13F0F22
:101E600013D84FEADC070CF0070B4FF001090EEB1B
:101E7000C7170744002D00F0398109FA0BF997F8CC
:101E800014B049EA0B0987F81490770018BFD644BC
:101E9000B84502DD46440CF1FF3C7345DBD1624599
:101EA000D9D100260496A4EB0209009FB9F1000FD6
:101EB000B8BFC9F100093F2C94BF00260126A242F9
:101EC000C9F100080396C0F02381002F40F0508133
:101ED000002E40F04D814FF0FF360096E60803EBF0
:101EE000C6160644002D00F01E814FF0010C04F0D0
:101EF00007070CFA07F796F814C047EA0C0737757E
:101F000000260396A24200F03D81C44616461F46B5
:101F100005927F2F15D83F2E13D84FEAD60E06F024
:101F2000070B4FF0010A07EBCE1E8644002D00F090
:101F3000E6800AFA0BFA9EF814B04AEA0B0A8EF809
:101F400014A0B8EB4C0F4FEA4C0E02DAACEB090CC4
:101F5000013FBEF1000F01D0009A1644BB42D8D118
:101F6000B442D6D1059AA1EB030EBEF1000FB8BF63
:101F7000CEF1000E7F2994BF4FF0000A4FF0010A06
:101F800099428CBF4FF001094FF0FF39BAF1000FB1
:101F900013D1039E8EB9E60801EBC6160644002D48
:101FA00000F0D3804FF0010C04F007070CFA07F79C
:101FB00096F814C047EA0C073775049E26BB77468F
:101FC00026467F2B14D83F2E12D84FEAD60C06F0A7
:101FD000070B4FF0010803EBCC1C8444002D73D099
:101FE00008FA0BF89CF814B048EA0B088CF8148037
:101FF0005FEA470C18BF4B44E64501DD7744013EDC
:102000009942DED1B442DCD1A2EB040EBEF1000F46
:10201000B8BFCEF1000EA2428CBF4FF001084FF0C6
:10202000FF38CEF1000CBAF1000F0ED1029B63B95C
:10203000D30802F00707012601EBC3130344002D68
:102040007CD0BE401F7D3E431E75019B002B7FF45C
:10205000CDAE66460B467F2B12D83F2C10D8E70832
:1020600004F0070A4FF0010903EBC7170744A5B3B3
:1020700009FA0AF997F814A049EA0A0987F81490AE
:10208000BCEB460F4FEA460702DAA6EB0E06013B11
:1020900007B144449942DED1A242DCD107B0BDE889
:1020A000F08F3F2A4FF0010A94BF002601267F2BB4
:1020B000029694BF002701270097002E7FF4C8AE38
:1020C000002F3FF4AEAEC3E608FA0BFB9CF8148079
:1020D00028EA0B088CF814808AE709FA0AFA97F8BC
:1020E000149029EA0A0987F81490C9E709FA0BFB4A
:1020F00097F8149029EA0B0987F81490C5E60AFAB4
:102100000BFB9EF814A02AEA0B0A8EF814A018E71D
:1021100097BB8EBB01260096E60803EBC616064465
:10212000002D7FF4E2AE012704F0070C039507FAB7
:102130000CFC377D27EA0C073775E3E606FA07F74C
:102140001E7D26EA07061E757FE7012704F0070CAF
:1021500007FA0CFC377D27EA0C0737752DE707FADD
:102160000CFC377D029527EA0C07009537756CE665
:102170004FF0FF360096C5E601260096C5E601261B
:10218000049690E601260196EDE600BF00000000EF
:102190002DE9F0412DED108B82B00192002A00F064
:1021A0003281044605EE902A0846B8EE65CB94EDE0
:1021B000049B9FEDCF7B9FEDD06B29EE077BB4EEA8
:1021C000C69BFDEEC77B17EE903A17EE907A802BF8
:1021D000A8BF8027F1EE10FA54BF01250025002B7F
:1021E000D4BF002505F00105002D40F0F980B7EEC1
:1021F000006BE16994ED06BA07EE901AB7EECBBA20
:10220000B8EEE7AB94ED02DB94ED008B2BEE06BB52
:102210003DEE087BB4EECC7B2AEE0BABF1EE10FA70
:102220000DDB37EE4C7BB4EEC7CBF1EE10FAF8D9EC
:10223000B5EEC07BF1EE10FA06D537EE0C7BB5EEAD
:10224000C07BF1EE10FAF8D4BCEEC77B2B46B0EEA3
:10225000493B3A46B0EE4D0B0190B0EE4C2B84ED6D
:102260000D7AB0EE481BFEF743FED4F82080B0EEA6
:1022700040FAB8F1000F77DDB0EE4C2B266B0CEE78
:10228000108AB0EE4D0BB0EE493B0198BAEEECCAA5
:102290002B463A46314694ED0AEBB0EE4E1BFEF764
:1022A00027FEDFED977AF0EE40CAB4EEE7CAF1EE12
:1022B00010FA40F23A81F7EE007AB4EEE7CAF1EE96
:1022C00010FAC0F20C81F7EE007A9FED8D7A37EEAE
:1022D000CCCAB4EEC7CAF1EE10FA40F22381B4EED4
:1022E000E7CAF1EE10FAC0F2118107EE906A3FEEF4
:1022F0002CFAB8EEE77B27EE0BBB3EEE0BEB002D86
:1023000000F0C980B5EEC0BBF1EE10FAC0F210814A
:10231000B4EECE9BF1EE10FA00F20A8107EE907A4D
:10232000B8EEE77B39EE477B3EEE47EBB5EEC09B60
:10233000F1EE10FA02D810E13EEE49EBB4EECE9B7E
:10234000F1EE10FAF8D9B5EEC0EBF1EE10FA06D5C1
:102350003EEE09EBB5EEC0EBF1EE10FAF8D408F161
:10236000FF3384ED0AEB23629FED637BB4EEC79BE2
:10237000F1EE10FA0FD588EE097B9FED620AB7EEF9
:10238000C77B27EE000A15F0ABF9F6EE007AE0EE17
:10239000677A2FEE27FA38EE0A8BEDBBB5EEC09BBD
:1023A000F1EE10FA02D8BAE038EE498BB4EEC89BD1
:1023B000F1EE10FAF8D9B5EEC08BF1EE10FA06D5B1
:1023C00038EE098BB5EEC08BF1EE10FAF8D4B0EE12
:1023D0004F0A84ED008B02B0BDEC108BBDE8F0819C
:1023E0007B0007EE103AB8EEC77BB4EEC97BF1EE86
:1023F00010FA70D807EE907AB8EEE77B39EE477B9B
:1024000087EE096BF5E69FED3EFAB0EE4F0A02B09B
:10241000BDEC108BBDE8F081B5EEC0ABF1EE10FA6B
:1024200026DBB4EEC89BF1EE10FA21D807EE907AC5
:10243000B8EEE77B39EE477B38EE478BB5EEC09BB5
:10244000F1EE10FA02D86AE038EE498BB4EEC89B80
:10245000F1EE10FAF8D9B5EEC08BF1EE10FAB6D560
:1024600038EE098BB5EEC08BF1EE10FAF8D4AEE77A
:10247000B5EEC0ABF1EE10FAE0D5B5EEC08BF1EEE3
:1024800010FADBD507EE907AB8EEE77B39EE477BA2
:1024900038EE078BD2E7B5EEC09BF1EE10FA02D80A
:1024A0005BE03EEE49EBB4EECE9BF1EE10FAF8D9CC
:1024B000B5EEC0EBF1EE10FA7FF551AF3EEE09EB51
:1024C000B5EEC0EBF1EE10FAF8D408F1FF3384ED6D
:1024D0000AEB236248E7B7EE006B002589E69FED23
:1024E0000A0A2CEE000A15F0BFFB6CEE80CAEAE681
:1024F000000000000000B03F000000000080A64087
:1025000000000000DB0FC940DB0FC93F1FED020ACE
:102510002CEE000A15F0A8FB2FEE00FAE5E69FED81
:10252000148B54E72FEE07FADFE660EE27CACAE6FF
:10253000B5EEC0BBF1EE10FA7FF5F8AEB5EEC0EB2C
:10254000F1EE10FA7FF5F2AE07EE907AB8EEE77B87
:1025500039EE477B3EEE07EBE8E69FED05EB08F131
:10256000FF3384ED0AEB2362FEE600BFAFF3008089
:102570000000000000000000436C012B2DE9F04733
:1025800004462DED028BB0EE408A3DD0022B35D1B2
:10259000026D50F8081BFFF7FBFD94ED157ADFED97
:1025A000B37AE16BB4EEE77AF1EE10FA1DD5236849
:1025B000F7EE006AA26D186830F9123007EE903A13
:1025C000FAEEE87A67EE877AF4EEE67AF1EE10FA40
:1025D00040F3068147F6FF7320F812300132236D75
:1025E000A2659A4201D30023A36594F85C30002BC6
:1025F0004DD0236D8B424FD838EE008AB0EE480A9A
:10260000BDEC028BBDE8F08790ED127B0168FCEE1B
:10261000C76B4B6816EE902A93420CD9F7EE006A0E
:102620000868B4EEE60AF1EE10FA40F3D08047F6FF
:10263000FF7120F81210B7EE006B37EE067BFCEE50
:10264000C75B84ED127B15EE902A9A42D6D34FF0E9
:102650007E5200200021013B22620122236562623A
:102660000022C4E90201C4E90401A2621BB107EE21
:10267000903AB8EE676BB0EE480A00220223A265DA
:102680006364BDEC028B84ED066BBDE8F08794F8C3
:102690005D30002BB0D0ACE7D4E9000293689942DA
:1026A00078D2734DA94275D20E0B4FF6FF7502EB2F
:1026B0004608B8F80E70AF426CD1D2F804E0BEF113
:1026C000000F67DD97894FF000097D1C45F67E1AE3
:1026D00095FBFEFC0EFB1C5502EB070C1CF80AC018
:1026E000ADB2BCF1000F40F0928002EB47094FF60B
:1026F000FF7C958109F58049B9F87E59654511D06F
:1027000002EB4505B5F80EE0BE4508BFA5F80EC0C2
:1027100005F50055B5F8C6C4BC4503D14FF6FF7C9E
:10272000A5F8C6C44FF6FF75AF4233D0DFF850A10D
:1027300001EA0A0A0AF58055AB42156870D34FEAE0
:10274000473C4FF4805E0368ACF102006FF0004C30
:1027500005440020D44403EB4C0C01303CF902AF9B
:10276000864525F802AFF8D8B6B202F50045A8F8BC
:102770000E70A9F87E69D5F88001B0F5006F0ADA0D
:1027800043F2BC070744013002EB4702C5F8800161
:10279000D68000E0036894F85D2052BB33F9112025
:1027A000F0EE487ADFED336A03EB410307EE102ABF
:1027B000B8EEC77AE7EE267AB7EE007AF4EEC77A7B
:1027C000F1EE10FA1ADD47F6FF721A8014E7FFEEF9
:1027D000006AB4EEE60AF1EE10FA3DD5264928E784
:1027E000BFEE007AF4EEC77AF1EE10FA2AD5224B4A
:1027F000F2E6F0EE487A03EB4103DDE7BFEE007A44
:10280000F4EEC77AF1EE10FA12D51B4ADDE709F1B2
:1028100001092F46F1457FF458AF03689581BAE767
:10282000B3EB0A0E02D04FEA473C8CE703689BE704
:102830009FED127A67EE877AFDEEE77A17EE902A1F
:1028400012B2C2E79FED0D7A67EE877AFDEEE77A66
:1028500017EE903A1BB2BFE6DFED086A60EE266A1B
:10286000FDEEE66A16EE901A09B2E2E677BE7F3F09
:1028700000C02501000000380180FFFF00FEFF4678
:1028800000F0FFFF000000002DE9F04FC44C0746A8
:10289000DFF84CA3C34D2DED048B8BB00192029158
:1028A00007F082FFCAF80800204601F0B9FE204672
:1028B00001F0D0FEFEF7A0F994F85230FF2BBA4B8E
:1028C0000CBF01220022197800F09A82002940F002
:1028D00045821A7094F8FE30B448002B00F05F82F5
:1028E00004F03AFD80F00100AB78C0B2002800F09F
:1028F0005C82002B00F01B8294F81631A870AC4863
:10290000002B00F01D8204F027FD80F0010095F8F7
:102910005230C0B2002800F01A82002B00F003826F
:10292000A04CA44B85F8520004F1700B93ED007A93
:10293000254623465A78002A00F01981D3ED037A00
:102940000121987877EE877A1A791971C3ED037AA5
:10295000002840F01581DFED986AF4EEE67AF1EE9A
:1029600010FAB8BF01465971002A00F00E8100220A
:1029700000219971DA7110335B45DBD12A7A00238B
:102980008E4E2B72002A40F044826A7A00236B72CA
:102990001AB1726C012A00F059849FED899A0021C6
:1029A0007F48B6EE008A01F04FFE30EE490ADFEDB7
:1029B000856A01217A48F7EE008AC0EE267A9FEDFB
:1029C000827AC7FE877AC7FEE87AC6ED157A01F0EB
:1029D0003BFEF1EE000A70EE487AB0EE000A67EEB8
:1029E000A00A14F0ADFF70EE487AF0EEE77AF4EE4C
:1029F000C97AF1EE10FA00F1F98070EE687A9FED75
:102A0000737AF0EEE77AF4EEC77AF1EE10FA40F15D
:102A10007A81736CB0EE680A022B86ED080A00F02A
:102A2000ED80002385F8583085F86830A6F85C30D2
:102A300003215B4801F008FE02215948B0EE408AAC
:102A400001F002FE736CF0EE400A022B2AD1336DC6
:102A5000B3F5346F26D3DFED5E7AB4EEE70A07EE06
:102A6000903AF1EE10FAC0F24383B8EE677BB0EE15
:102A7000474BB7EE005BB7EEC86AB4EE457B26EE77
:102A8000046BF1EE10FA48BFB0EE457B86ED046BA7
:102A900096ED026B86ED067BB4EEC67BF1EE10FA86
:102AA00040F27982019BF3B1029B002602943C46DE
:102AB0001D1F03F10C092F46019D23684FEA86086C
:102AC0003E4803EB860393ED000AFFF755FD3946B8
:102AD00051F8043F4344894583ED000AF8D101369B
:102AE000B542EAD1029CDFF8FC803A4D3A4F237997
:102AF000052603B13E782B78103401374FF0900C47
:102B0000B3424FF0030209A934480AD098F80030C4
:102B10008DF824C08DF826608DF8253007F010FC64
:102B20002E705C4508F1010805F10105DFD107F0C1
:102B30003BFEDAF808209AED017A821A9AF8003002
:102B400007EE902AF8EE677A67EE877A002B00F09E
:102B500032810023CAED057ACAED037ACAED047A00
:102B60008AF800300BB0BDEC048BBDE8F08FD9784B
:102B70001A7969B101211971997800293FF4F3AEEE
:102B800001215971002A7FF4F2AE01219971F1E619
:102B9000997811B101211971F2E719715971E7E6BC
:102BA0003C07002404000024180700242408002403
:102BB0003C0800241C0700240000964378000024F1
:102BC0008FC2F53CD7A3703F000000000AD7233D19
:102BD00048E17A3F0C070024889401086408002427
:102BE00020070024809401088FC2753DB0EE480A8A
:102BF000736C86ED080A022B7FF413AF736A95F8A5
:102C00004420B2EBD37F08D0B3635B42736280236E
:102C1000B362D6E90223C6E90C2395F858300022A6
:102C200085F85820002B40F082822B7D002B40F04D
:102C3000028196F85C30002B40F0E48195F8243056
:102C4000002B00F0248196F85D3095F82380002B4E
:102C500000F0A68196F85E3048EA030886F85E80A8
:102C600095F86830002285F86820002B3FF4E0AE2C
:102C7000D6F8049009F500430393D3F88431002B70
:102C80007FF7D6AE47F27C1CD9F80020D6F800E0DA
:102C9000CC440696D9F808500CEB4303CDE9044721
:102CA0001E4617463CF8022F02F59353120302F515
:102CB000805109EB43038D42DB88C0F014825B0333
:102CC0004FF480546FF00041023B1144DEF80020C5
:102CD0003B4402EB41020021013132F9020F33F98A
:102CE000028FA142A2F800801880F5D36645D9D1A1
:102CF000039A069E92F8883183F00103DDE90447C8
:102D000082F8883194E6B0EE007A5FED496A70EEA1
:102D1000477AF0EEE77AF4EE667AF1EE10FA48BF01
:102D2000B0EE470A64E7012385F85830F8E501233F
:102D3000A870B0482B7294F81631002B7FF4E3ADE5
:102D400004F00AFB95F8523000287FF4E6AD002B22
:102D50003FF4E6AD012385F85930E1E56978A9B182
:102D6000D5ED037A9FEDA47AF4EEC77AF1EE10FA6E
:102D700003D52978002940F077829FED9F7AF4EE01
:102D8000C77AF1EE10FA01DB0121697200211A7095
:102D900094F8FE3099486970002B7FF4A1AD04F0DF
:102DA000DBFAAB7800287FF4A4AD002B3FF4A4AD90
:102DB00001236B72A0E59AED047ADAED066AF4EE6F
:102DC000C77A9AED037A9AED056AF1EE10FAF4EEFD
:102DD000C77AB7EE007AC8BFCAED047AF1EE10FAEE
:102DE00037EE667A48BFCAED037A27EE067AA7EE79
:102DF000A67A8AED057A0BB0BDEC048BBDE8F08FA6
:102E000000297FF466AD0121697029720021E96013
:102E10005FE5726C012A00F09C81022A00F0958126
:102E2000002A7FF4B2AD01233265002273640023CF
:102E3000C6E91223A9E596F85C30002B7FF4FEAEBC
:102E4000D6F804E00EF50049D9F88031002B17DDE3
:102E500046F27C11714401EB430831F8022F42F233
:102E6000BC434FF6FF700EEB4202B2F80EC0634453
:102E700084450EEB430301D0D880D0818845ECD146
:102E80000023C9F88031012386F85C30D6E696F835
:102E90005D30002B3FF4E4AE96F85E30002B00F07E
:102EA0007781736803F500420392D2F88421002AE7
:102EB00025DD47F27C100494184400EB4202914651
:102EC00030F8022F4FF6FF7403EB420202F5005276
:102ED000B2F8C6E4A64503EB0E0C0DD042F2BC419D
:102EE0004FF00008714445F67E1E03EB41010CF8DB
:102EF0000E80CC80A2F8C6448145E1D1049C00221A
:102F00000399C1F88421D1F88021002A31DD46F2ED
:102F10007C18DDF80CE0984408EB42029146CDE9BC
:102F20000447CDE9065638F8025F4FF6FF7445F6C0
:102F30007E174FF0010C03EB450143F6BC02C88934
:102F400001F50056CC81A0420DD0191801F807C038
:102F5000A6F8C604DEF884110A44614403EB420279
:102F6000CEF88411D580C145DDD1DDE90447DDE926
:102F700006560023039AC2F8803182F88831002374
:102F8000002286F85D3095F8683085F86820002BBF
:102F90003FF44EAD6CE600220023C6E9022381E532
:102FA000D6F804E00EF500430393D3F88031002BEC
:102FB00017DD46F27C11714401EB430931F8022F11
:102FC00042F2BC434FF6FF700EEB4202B2F80EC065
:102FD000634484450EEB430301D0D880D08149453A
:102FE000ECD10023039AC2F88031012386F85D30CA
:102FF00034E600BF3C080024000096432408002467
:103000000000B444736803F500420392D2F88421AF
:10301000002A25DD47F27C1C04949C440CEB420200
:1030200091463CF8022F4FF6FF7003EB420202F587
:103030000052B2F8C6E4864503EB0E040DD042F20E
:10304000BC414FF00008714445F67E1E03EB410180
:1030500004F80E80C880A2F8C604CC45E1D1049CD7
:1030600000220399C1F88421D1F88021002A31DDA2
:1030700046F27C1CDDF80C8004949C4407960CEB13
:1030800042029146CDE905753CF8025F4FF6FF74A8
:1030900045F67E174FF0010E03EB450143F6BC02E7
:1030A000C88901F50056CC81A0420DD0191801F84D
:1030B00007E0A6F8C604D8F884110A44714403EB6B
:1030C0004202C8F88411D580CC45DDD1DDE9044742
:1030D000DDE906560023039A86F85C30C2F8803199
:1030E00082F88831AAE5AC1A3FF400AE5B03E9E54B
:1030F000F8EE677A1FED3E0A87EE800A14F020FC96
:10310000B7EEC07A9FED6A6B27EE067BB4EEC67B06
:10311000F1EE10FA00F18F80D6ED146AB8EE664B2E
:10312000B4EE447BF1EE10FA34FE077BA1E4D6E95D
:103130000201736AC6E90C01B363002080230021F9
:10314000B3622B7DC6E9020170E5A6F85C307364BA
:103150001BE496ED127BFCEEC77B17EE901AC6EDD2
:10316000147AB1F5F07FF2D3B365B8EE677BC6E9A8
:1031700009234FF07E53002233620223736400233D
:1031800086ED067BC6E90223C6E90423FFF7FDBBF3
:10319000D6E900391A4609F500430393D3F8803184
:1031A000002B3FDD46F27C1E94460695CE440EEB86
:1031B0004303CDE904471F463EF8023F4FF6FF7236
:1031C00009EB43015D00CC89944226D01B03D9F85A
:1031D0000800D9F8001003F58052904227D362030B
:1031E0004FF48050023A11446FF000421A44DCF868
:1031F000003003EB42020023013331F9028F834296
:1032000022F8028FF8D342F2BC434FF6FF724D44CE
:10321000234409EB4303DA80EA81BE45CCD1069D05
:10322000DDE904470023039AC2F88031A7E6C01AFB
:10323000E9D06203D6E7336DD6ED147AB3F5B46FF7
:10324000B8EE677B15D2B0EE474B12E496ED127BD9
:10325000BCEEC77B17EE101A86ED147AB1F5F07F3D
:1032600010D27364FFF799BBE97881F00101E9702E
:1032700083E5B7EEC85A25EE075BB0EE467B86EDD8
:10328000045B05E4C6E90923B3654FF07E53B8EE4D
:10329000477B0022336202237364002386ED067BA2
:1032A000C6E90223C6E90423FFF777BBAFF300802A
:1032B00000000000008096402DE9F04F002190486A
:1032C000904E4FF40067904C904D2DED048B97B0CD
:1032D000B7EE008A01F002FC2021894801F088F94C
:1032E0000321874801F070F9854801F07FF984488F
:1032F000F0EE408A01F08EF907EE900A9FED847A95
:10330000844B0021F8EE677A8348844A746067EE44
:10331000877A306087EEA87A83ED007A14F000FE99
:103320007F4B44F67012AC6000242B6005F500431F
:10333000FF2105F10E0083F88841AC816F60C3E97D
:10334000604414F0EDFD4FF48052FF21754814F0F5
:10335000E7FD21463A46744814F0E2FD7349002225
:103360000023A1F85C4081ED088A8C6264484C64BB
:103370000C6581ED158A8C6581F85E40C1ED108A7F
:103380000994C1E91223C1E90223C1E904230022FF
:10339000674BC1E90623674BC1E9006501251C7035
:1033A00083F85040703303F8104C4D62079301F0DE
:1033B00031F907EE900A604CB8EEE79A07F096FBF9
:1033C0009FED5E6A07EE900A4FF440732046C8EE08
:1033D000896A5B4A23805B4B50F8041BD360C9EEBB
:1033E000289A136153611570F8EE677A86EE267A93
:1033F00067EEA97AC8EE276A37EE088AC7EE087A20
:10340000C2ED016AC2ED067A03F09AF904F10800F0
:103410003B4C03F0C3F8142104F58C7304F594704D
:1034200004F5104AC4F83431474BC4F8383107F07A
:10343000DDF804F59470454B0090D4E94B1206F08A
:10344000F1FE204601F0E8F84149204601F0BAF8C3
:103450004FF4806200213F4814F062FD334B5B6CF7
:10346000012B00F01387022B00F000870023CAF81D
:103470007C32394B5A7893F800B05B6805925F460E
:10348000364A069345230392203BDAB25E2A00F2C5
:103490009F80BAF87C8208EB070EBEF1800F00F324
:1034A0009780BAF87E22059904920A44402A00F3D4
:1034B0008F80002976D0059A6FF00046049802FBB1
:1034C00003F31E441344069AA2F1020B02EB4606D4
:1034D0000BEB430B36F802CF002F5FD000F0070351
:1034E0000125C20800249D4049F28C2343446DB25B
:1034F00003EBC213024A6FEA0509134442463BE05C
:103500003C070024D49D002400F82401202F01242E
:1035100000007A441C070024000000C100F04902AA
:10352000000000C09E7801249E88012478000024B9
:103530000000F03F04000024DC9D0024DB0FC940A4
:10354000200700240000C07F850A0008790A0008CF
:1035500089280008C899002450040024D893010841
:103560007F2A04D83F2802D81978294319700134DA
:1035700001330132A74211D00CFA04F10904EFD44F
:103580007F2AF4D83F28F2D8197801340133013268
:1035900009EA0101A74203F8011CEDD15E4500F1E3
:1035A000010097D1049B1FFA8EFE039A3F2B28BF80
:1035B0003F23BEF17F0FAAF87E3228BF4FF07F0E67
:1035C00012F8013FAAF87CE20392002B7FF45CAF73
:1035D000A94BF6EE007ADFEDA96A4FF47A76D3EDC7
:1035E000105A18211B6D10A8A54D07EE103A039331
:1035F000A44AB8EE477A87EE256AE6EE267AFDEE13
:10360000E77A17EE904A85FB0435E317C3EBA51361
:1036100006FB1344009414F0BFFD9B4A38235178F5
:1036200092F800B0CAF87C3252689DF8403005919B
:103630000692002B71D010AA5F460392203BDAB2AB
:103640005E2A6AD8BAF87C8208EB070EBEF1800FBA
:1036500063DCBAF87E22059904920A44402A5CDCB5
:10366000002945D0059A6FF00046049802FB03F349
:103670001E441344069AA2F1020B02EB46060BEB22
:10368000430B36F802CF7FB300F007030125C208D1
:1036900000249D4049F28C2343446DB203EBC213D6
:1036A0007A4A6FEA0509134442460BE07F2A04D8A0
:1036B0003F2802D8197829431970013401330132A7
:1036C000BC4211D00CFA04F10904EFD47F2AF4D8DB
:1036D0003F28F2D8197801340133013209EA010197
:1036E000BC4203F8011CEDD15E4500F10100C8D1D8
:1036F000049B1FFA8EFE039A3F2B28BF3F23BEF187
:103700007F0FAAF87E3228BF4FF07F0E12F8013FDC
:10371000AAF87CE20392002B90D1574A92F85D30D0
:10372000002B40F09E8592F85C30002B40F05786CD
:10373000536803F5004393F88821002A40F0BC86C3
:10374000D3F88431002B40F3BF86514A752303928E
:103750006E22CAF87C224F4A92F800B051785F4638
:10376000526805910692203BDAB25E2A6AD8BAF80E
:103770007C8208EB070EBEF1800F63DCBAF87E2274
:10378000059904920A44402A5CDC002945D0059A38
:103790006FF00046049802FB03F31E441344069A9C
:1037A000A2F1020B02EB46060BEB430B36F802CFFD
:1037B0007FB300F007030125C20800249D4049F2B1
:1037C0008C2343446DB203EBC213304A6FEA050900
:1037D000134442460BE07F2A04D83F2802D81978C8
:1037E00029431970013401330132BC4211D00CFA63
:1037F00004F10904EFD47F2AF4D83F28F2D81978CD
:1038000001340133013209EA0101BC4203F8011C11
:10381000EDD1B34500F10100C8D1049B1FFA8EFE23
:10382000039A3F2B28BF3F23BEF17F0FAAF87E32B9
:1038300028BF4FF07F0E12F8013FAAF87CE20392F6
:10384000002B90D19AF80B34134A43F010038AF8F6
:103850000B3412F8011F41F0100111700F49914211
:10386000F7D19AF80B254FF0140B022142F04002D9
:103870008AF80B2516E000BF7800002400007A4487
:10388000D34D621010940108500400243C0700241A
:103890000094010848040024C79A0024469B002491
:1038A00092F80B330BF0070401220AEBC11093448A
:1038B000A2404FEADB011343BBF1260F0AEBC11212
:1038C00080F80B33ECD19AF88C34734A43F0400300
:1038D0008AF88C3412F8011D41F0400111706F49D3
:1038E0009142F7D19AF88C23042142F010028AF811
:1038F0008C2301E092F88C320BF0070401220BF1CB
:10390000FF3B0AEBC110A2404FEADB01BBF1140FF1
:1039100043EA02030AEBC11280F88C32EAD1604A12
:10392000136D05EE903A9FED5A7BB8EE655B92ED14
:10393000066B25EE077BB4EEC76BF1EE10FA40F193
:10394000FB80002B00F0508586EE054BDFED553AED
:1039500092ED042B82EE057BB7EEC44BF7EEC77BEE
:1039600024EE237A67EEA37ABDEEC77AFDEEE77AFE
:1039700017EE102A17EE903A022AACBF9918991C3C
:103980007F2940F3A6857F2B0CD849F28C321A444C
:10399000454B13441A7842F00E0203F8012B434AB8
:1039A0009A42F7D17E39424A00237F2B03F101036B
:1039B00003D8107840F00E0010708B4202F1010223
:1039C000F3D1F7EEC67B9FED3B7A354BF6EE006AFE
:1039D000394A102167EE877A93ED106A0CA887EEBA
:1039E000867A77EE267AFDEEE77A17EE903A14F0B3
:1039F000D3FB324A324B517892F80090CAF87C32AD
:103A000052689DF8303006910892002B00F09480A7
:103A10000CAA4D46CDF814B00392203BDAB25E2AD0
:103A200000F28880BAF87C8208EB050EBEF1800FA8
:103A300000F38080BAF87E22069904920A44402A54
:103A400078DC002960D0069A6FF0004C049C02FBE1
:103A500003F39C441344089AA2F1020B02EB4C0CB2
:103A60000BEB430B3CF8026F002D49D004F0070329
:103A7000012749F28C2241469F40E30842447FB22D
:103A800002EBC312084B6FEA07091A44002325E032
:103A90005C8FC2F5285CEF3F489C0024C99B002442
:103AA000780000240000FE423C070024489B0024CC
:103AB000C89A002400007A441C9401084804002499
:103AC00058000A007F2904D83F2C02D810783843C8
:103AD00010700133013201319D4211D006FA03F01A
:103AE0000004EFD47F29F4D83F2CF2D810780133AA
:103AF0000132013109EA00009D4202F8010CEDD1CA
:103B0000E34504F10104ADD1049B1FFA8EFE039A34
:103B10003F2B28BF3F23BEF17F0FAAF87E3228BF7C
:103B20004FF07F0E12F8013FAAF87CE20392002BBF
:103B30007FF473AFDDF814B07F4B5B6C022B00F0A9
:103B400067847D4B6421DFED7D7AD3ED086A5B6A83
:103B50007B4A07EE103A0393B8EEC77A27EE267A2F
:103B6000F0EEC76AB5EEC07A66EEA77AF1EE10FA0B
:103B7000FDEEE66AFDEEE77ACDED006A17EE903ACB
:103B8000A2FB030210A84FEA521201FB12336D4A46
:103B90004FF0180101936C4B48BF13466B4A14F069
:103BA000FBFA6B4A4FF42813517892F80090CAF848
:103BB0007C3252689DF8403003910692002B72D0FF
:103BC00010AA4F460492203BDAB25E2A6AD8BAF8AD
:103BD0007C8208EB070EBEF1800F63DCBAF87E2210
:103BE000039905920A44402A5CDC002945D0039AD7
:103BF0006FF00046059802FB03F31E441344069A37
:103C0000A2F1020B02EB46060BEB430B36F802CF98
:103C10007FB300F007030125C20800249D4049F24C
:103C20008C2343446DB203EBC2134A4A6FEA050981
:103C3000134442460BE07F2A04D83F2802D8197863
:103C400029431970013401330132BC4211D00CFAFE
:103C500004F10904EFD47F2AF4D83F28F2D8197868
:103C600001340133013209EA0101BC4203F8011CAD
:103C7000EDD1B34500F10100C8D1059B1FFA8EFEBE
:103C8000049A3F2B28BF3F23BEF17F0FAAF87E3254
:103C900028BF4FF07F0E12F8013FAAF87CE2049291
:103CA000002B90D1B946244BDFED2B7A93ED157A9A
:103CB0002A4BB4EEE77ACAF87C32F1EE10FAC0F281
:103CC0002B82274A4FF0300B46234D4604920BEBD4
:103CD0000509B9F1800F00F38280BAF87E220399BA
:103CE00005920A44402A7ADC00295FD0039A203BDF
:103CF0006FF0004C059C02FB03F39C441344069AAE
:103D0000A2F1020802EB4C0C08EB43083CF8026FEE
:103D1000002D47D0134A04F00703012759465A449F
:103D20009F40E30892B27FB202EBC312094B6FEAE5
:103D3000070E1A44002323E0780000240000C84244
:103D40001F85EB51E0930108E493010824940108D6
:103D5000480400243C07002477BE7F3F30002A003F
:103D6000E89301088C92FFFF7F2904D83F2C02D8EA
:103D7000107838431070013301320131AB4211D059
:103D800006FA03F00004EFD47F29F4D83F2CF2D8D0
:103D900010780133013201310EEA0000AB4202F823
:103DA000010CEDD1E04504F10104AFD1059B1FFAF0
:103DB00089FB049A3F2B28BF3F23BBF17F0FAAF852
:103DC0007E3228BF4FF07F0B12F8013FAAF87CB279
:103DD000049223B1A3F120025E2A7FF678AFA946B0
:103DE000794B5B6A002BC0F25582784B0DF12F00A6
:103DF000774A1C792E2104B11178103300F8011F85
:103E0000079901328B42F4D100238DF837304FF4FB
:103E10005813CAF87C329DF83030002B71D00CAAB0
:103E20004F460492203BDAB25E2A6AD8BAF87C8206
:103E300008EB070EBEF1800F63DCBAF87E2203990F
:103E400005920A44402A5CDC002945D0039A6FF0B1
:103E50000046059802FB03F31E441344069AA2F1A0
:103E6000020B02EB46060BEB430B36F802CF7FB397
:103E700000F007030125C20800249D4049F28C236D
:103E800043446DB203EBC213524A6FEA050913446F
:103E900042460BE07F2A04D83F2802D819782943EC
:103EA0001970013401330132A74211D00CFA04F128
:103EB0000904EFD47F2AF4D83F28F2D819780134C6
:103EC0000133013209EA0101A74203F8011CEDD1D7
:103ED0005E4500F10100C8D1059B1FFA8EFE049AD1
:103EE0003F2B28BF3F23BEF17F0FAAF87E3228BFA9
:103EF0004FF07F0E12F8013FAAF87CE20492002BEB
:103F000090D1354BF6EE007A9FED347A40F2E734EB
:103F1000D3ED006A1821324A10A8E6EE877AFDEE4A
:103F2000E77A17EE903AA342A8BF234614F034F97B
:103F30002C4A2D4B517892F800B0CAF87C32526866
:103F40009DF8403005910692002B00F0878010AA62
:103F50005F460392203BDAB25E2A7FD8BAF87C82B1
:103F600008EB070EBEF1800F78DCBAF87E220599C7
:103F700004920A44402A71DC002959D0059A6FF056
:103F80000046049802FB03F31E441344069AA2F170
:103F9000020B02EB46060BEB430B36F802CF002F69
:103FA00042D000F007030125C20800249D4049F2D9
:103FB0008C2343446DB203EBC213064A6FEA050932
:103FC000134442461EE000BF780000240400002491
:103FD000909401083C070024140700240000C84204
:103FE0003894010848040024500036007F2A04D881
:103FF0003F2802D81978294319700134013301325E
:10400000A74211D00CFA04F10904EFD47F2AF4D8A6
:104010003F28F2D8197801340133013209EA01014D
:10402000A74203F8011CEDD15E4500F10100B4D1B7
:10403000049B1FFA8EFE039A3F2B28BF3F23BEF13D
:104040007F0FAAF87E3228BF4FF07F0E12F8013F93
:10405000AAF87CE20392002B7FF47CAFAD4EB02433
:104060000025AD488DF82F400134294603F074FA3D
:10407000642301220DF12F01A848E4B205F07AF97A
:104080002946A5488DF82F5003F066FA01226423D3
:104090000DF12F01A14805F06DF9102329469E4826
:1040A0008DF82F3003F058FA642301220DF12F010F
:1040B0009A4805F05FF90121974803F04DFA31461F
:1040C000642380229548803605F054F9B82CC7D176
:1040D00006F068FB099BC31AB3F57A7FFFF4B8A911
:1040E0008F4BD3ED047AF5EEC07AF1EE10FA09DBCE
:1040F000B1EE007AF4EEC77AF1EE10FA02D5894BF0
:10410000C3ED007A884B864A0990D36013615361EE
:1041100001231370FFF79CB90021844800F094FA42
:10412000DFED837AB6EE007A9FED825A30EE670AB1
:10413000DFED816AB7EE006ADFED805A804A182110
:10414000C0EE057A10A8C7FEA57AC7FEC67AA7EE0C
:10415000A67AFDEEC77A17EE903A14F01DF8794A68
:104160009DF84030517892F8009052680391069281
:10417000002B3FF435AE10AA4D460492203BDAB234
:104180005E2A3FF62CAEBAF87C8208EB050EBEF133
:10419000800F3FF724AEBAF87E22039905920A44B5
:1041A000402A3FF71CAE002945D0039A6FF0004C1F
:1041B000059C02FB03F39C441344069AA2F1020BF4
:1041C00002EB4C0C0BEB430B3CF8026F7DB304F09D
:1041D0000703012749F28C2241469F40E3084244ED
:1041E0007FB202EBC312514B6FEA07091A44002356
:1041F0000BE07F2904D83F2C02D810783843107088
:10420000013301320131AB4211D006FA03F0000450
:10421000EFD47F29F4D83F2CF2D810780133013243
:10422000013109EA0000AB4202F8010CEDD1E3458F
:1042300004F10104C8D1059B1FFA8EFE049A3F2B9E
:1042400028BF3F23BEF17F0FAAF87E3228BF4FF070
:104250007F0E12F8013FAAF87CE20492002B8DD168
:10426000BDE5394A53230392FFF772BA374A502308
:1042700003920022CAF87C22354A92F800B05178A5
:1042800052685F4605910692FFF7FEB8314A522305
:104290000392EEE7304B4FF0560B304A4D46CAF8CA
:1042A0007C323C2304920BEB0509B9F1800F00F33B
:1042B0009480BAF87E22039905920A44402A00F3BA
:1042C0008C80002970D0039A203B6FF0004C059C35
:1042D00002FB03F39C441344069AA2F1020802EB8A
:1042E0004C0C08EB43083CF8026F002D58D01C4AD8
:1042F00004F00703012759465A449F40E30892B24D
:104300007FB202EBC312094B6FEA070E1A44002377
:1043100034E000BFC8990024C4990024BC9900244B
:1043200020070024140700240000C07F3C0700245D
:104330008FC2F53CD7A3703F0000C84200000000C8
:104340003094010848040024FC93010808940108F3
:10435000500400240494010856002A00EC9301083C
:104360008C92FFFF7F2904D83F2C02D81078384365
:1043700010700133013201319D4211D006FA03F071
:104380000004EFD47F29F4D83F2CF2D81078013301
:10439000013201310EEA00009D4202F8010CEDD11C
:1043A000E04504F101049ED1059B1FFA89FB049AA4
:1043B0003F2B28BF3F23BBF17F0FAAF87E3228BFD7
:1043C0004FF07F0B12F8013FAAF87CB2049223B1A0
:1043D000A3F120025E2A7FF666AFA94605E53F4AB3
:1043E0004F230392FFF7B4B97F2149F28C323C4846
:1043F0001A4402447F2B03F1010303D8107840F0E4
:104400000E001070994202F10102F3D2FFF7D9BAFF
:10441000344A136D002B54D007EE903A92ED025BB4
:10442000B8EE676B92ED047B37EE057BB4EEC67B8E
:10443000F1EE10FA0DDB37EE467BB4EEC76BF1EE12
:1044400010FAF8D9B5EEC07BF1EE10FA06D537EECA
:10445000067BB5EEC07BF1EE10FAF8D487EE065B72
:104460009FED217AF7EEC57B67EE877AFDEEE77A5E
:1044700017EE903A7F2B18D803F50072524492F849
:104480008C1241F0400182F88C127F2B0DD84FEA3C
:10449000DB020BF00700012103EBC2128140524402
:1044A00092F88C02014382F88C120BF1010BBBF1E4
:1044B000260FEAD1FFF745BB0C4A55230392FFF7BD
:1044C00047B94FF40072D9E76E23CAF87C32FFF780
:1044D000B9B98B423FF675AA87E700BFF893010888
:1044E0003C070024780000240000FE42F4930108F9
:1044F0002DE9F0412B4D00244FF60B73DFF8C080FF
:1045000005F58C702C60C5F8003140F20F776C61B6
:1045100040F201162C62EC63C5F80C41C5E93A344F
:10452000C5E93C44C5E9414401F06CFF05F5F4716F
:1045300005F510431C4AC5F8D81128461B49C3F895
:104540008042C3F878121A49C5F82841C5F8D081CD
:10455000A5F8D471C5F8DC61C5E9784413F0B6F864
:104560001448114A00F1B4031349C0F89C80C0F804
:10457000A4304FF4407344600360C0F8A070C0F8EA
:10458000A860C0E92B4413F0A1F80C4B03F50042DE
:104590009C609C8182F88841C3E90044C2E9604480
:1045A000BDE8F0813C070024000000244C94010881
:1045B000450A0008DC9D0024650A0008202F01241C
:1045C0000080707F00F02EBB70B5054600F02EFB1A
:1045D00005F1680405F1E806284600F069FB20466D
:1045E000203401F063FEB442F6D170BD00F03ABB56
:1045F00070B5054600F03AFB05F1680405F1E806E0
:10460000284600F055FB2046203401F04FFEB4420E
:10461000F6D170BD00F046BB183002F021BB00BFE0
:1046200010B50446683001F01DFE04F1880001F069
:1046300019FE04F1A80001F015FE04F1C800BDE860
:10464000104001F00FBE00BF00EB411191ED1D0ABB
:10465000704700BF403001F085BE00BF30B59DB04F
:10466000054600F029FB012847D0274900220123F5
:10467000CDF82A10CDE91023002224490123032478
:10468000ADF8542002A80F9318931B930C94CDE916
:10469000082140F20451ADF828101D49CDE90D3232
:1046A000CDE91231CDE916431A4B08A9CDE91922FB
:1046B000149300220023CDE9022303F095FE12A9F2
:1046C00003A803F091FE40F60163ADF804300198B1
:1046D00000F032FC4FF07E5230214FF07C5C0792AC
:1046E00005F11400049104A9039B029A0594CDF8E6
:1046F00018C001F0B3FC1DB030BD034A0023109078
:10470000CDF82A201193B7E7040604030402040439
:10471000000106090002030BF0B502220646002440
:1047200006F1180706F168052DED028B99B09FED93
:10473000228AADF8082006A8029902F06FF84FF41B
:10474000407302220DF12A00ADF80C30039902F0FB
:1047500065F840F2024302220FA8ADF81030049928
:1047600002F05CF84FF4E06302220DF14E00ADF868
:104770001430059902F052F8042306A938461A4667
:1047800002F060F8E1B2384602F080FA01460134E6
:104790003046019100F08CFA2846F0EE480A0023DA
:1047A00001220199203501F02BFD042CEAD119B02A
:1047B000BDEC028BF0BD00BF6F12033B0000000098
:1047C0002DE9F0430FF20C39D9E900898FB0C04BC5
:1047D00049F2802401250C9300260444002206950A
:1047E00004F10807CDE9028900F51048384604F1C4
:1047F0000409A8F88832022388F88A52CDE90A33DE
:10480000082307930023CDE90866CDE9042302F0CD
:10481000B9FDBDF83230484688F88652A8F884328F
:1048200002F0B0FD02A9204604F01CFD31464846C6
:1048300002F092FE0A2005F0BDFF2946484602F02C
:104840008BFE0A2005F0B6FFAE23314638468DF8C0
:10485000073002F081FE2A460DF10701642320464D
:1048600004F088FDD523314638468DF8073002F034
:1048700073FE2A460DF107016423204604F07AFDF9
:104880008023314638468DF8073002F065FE2A460F
:104890000DF107016423204604F06CFDA823314686
:1048A00038468DF8073002F057FE2A460DF1070111
:1048B0006423204604F05EFD3F23314638468DF8E0
:1048C000073002F049FE2A460DF107016423204615
:1048D00004F050FDDA23314638468DF8073002F0F7
:1048E0003BFE2A460DF107016423204604F042FDF9
:1048F0001223314638468DF8073002F02DFE2A4645
:104900000DF107016423204604F034FDD323314622
:1049100038468DF8073002F01FFE2A4664230DF159
:104920000701204604F026FD314638468DF8076021
:1049300002F012FE2A460DF107016423204604F01E
:1049400019FD4023314638468DF8073002F004FE49
:104950002A460DF107016423204604F00BFDA6232F
:10496000314638468DF8073002F0F6FD2A460DF143
:1049700007016423204604F0FDFCA4233146384699
:104980008DF8073002F0E8FD2A460DF10701642397
:10499000204604F0EFFC8D23314638468DF8073071
:1049A00002F0DAFD2A460DF107016423204604F0E7
:1049B000E1FC1423314638468DF8073002F0CCFD77
:1049C0002A460DF107016423204604F0D3FCA123FD
:1049D000314638468DF8073002F0BEFD2A460DF10B
:1049E00007016423204604F0C5FCC823314638463D
:1049F0008DF8073002F0B0FD2A460DF1070164235F
:104A0000204604F0B7FC8123314638468DF8073044
:104A100002F0A2FD2A460DF107016423204604F0AE
:104A2000A9FC8F23314638468DF8073002F094FDFB
:104A30002A460DF107016423204604F09BFCD9238C
:104A4000314638468DF8073002F086FD2A460DF1D2
:104A500007016423204604F08DFC252331463846A7
:104A60008DF8073002F078FD2A460DF10701642326
:104A7000204604F07FFCDB23314638468DF80730B2
:104A800002F06AFD2A460DF107016423204604F076
:104A900071FC3423314638468DF8073002F05CFD56
:104AA0002A460DF107016423204604F063FCAF237E
:104AB000314638468DF8073002F04EFD64232A4611
:104AC0000DF10701204604F055FC0FB0BDE8F0835E
:104AD0000104010F060B0B000105060A2DE9F04742
:104AE000044698B001260027019100F099F8019939
:104AF000204600F09DF904F1200A20464FF00209FB
:104B0000FFF7ACFD2046FFF75BFE11A9504604F508
:104B1000104805ADCDE91467CDE9129702F080FA8F
:104B200049463A46504602F0F9FA40F601139FED25
:104B3000380A04F14000ADF8103040F60103049942
:104B4000ADF80C3040F60143ADF80830DDE9023233
:104B500001F0D8FB2F4B49F28C60C8F88C3620440A
:104B600002F010FC2C4B324604F1E800196801F009
:104B700037FC2A4B324604F58070196801F030FC8E
:104B80002046FFF71DFE284601F03CFC47F61223A5
:104B90000DF1240E04F58C7CCDF854900DF1340900
:104BA00017931396169604F59476149795E80F00CC
:104BB0008CE80F008EE80F0089E80F00BDF8383050
:104BC0001290ADF84630BDF83A30D4E9485EADF801
:104BD0004430C4E94B5EBEF1000F04D07246394642
:104BE000284613F09DF911A9304605F0B1FA04F5F5
:104BF0009E7001F0D3FC2046FFF78EFD1123C8F80C
:104C0000943605F0CFFDC8F8900618B0BDE8F087DF
:104C10000000000001010100989401089C94010823
:104C2000704700BF143001F0B7BA00BF38B500F1CB
:104C3000140504462DED028B284601F069FA28463A
:104C400001F062FA2846B0EE408A01F04BFAD0ED4E
:104C5000007AF8EE677A88EE277ABDEC028B84ED55
:104C60000E7A38BD143001F04FBA00BF38B500F1EC
:104C7000140504462DED028B284601F037FA28462C
:104C800001F042FA2846B0EE408A01F02BFAD0ED4E
:104C9000007AF8EE677A88EE277ABDEC028B84ED15
:104CA0000E7A38BD08B5143001F01CFA006808BD52
:104CB00090ED0E0A704700BF10B540F203338EB07E
:104CC00000244FF60B7240F20341ADF8083009A8FA
:104CD0000123ADF81020ADF824202246ADF80C10C9
:104CE0000094029907940C94CDE90544CDE90A4457
:104CF00002F04CFA04A8012322460399009402F022
:104D000045FA09A802F028FB10B901200EB010BD29
:104D100004A802F021FBA0420CBF022020460EB0E6
:104D200010BD00BF2DE9F04103239AB001270024F4
:104D30000646CDE914373B4BCDE9104340F204530E
:104D4000CDE91647ADF84830FFF7B6FFB842054643
:104D500025D0022845D040F60132334B0DF12C0806
:104D60001894ADF82C200B981997CDF84A3000F024
:104D7000E3F810A906F13C0003F036FB30200322D3
:104D80004FF07E5341460D930E93CDE90B02F26B2B
:104D900006F1140001F02AF91AB0BDE8F0811023E1
:104DA000214A06A906908DF828300DF12C081F4BDA
:104DB000CDF84A2007930294CDE91804CDE9080400
:104DC00002A802F049FD0823029A03A94046ADF863
:104DD0000C508DF80E40049505930B9400F0ECF800
:104DE000C7E700200121104B0DF12C083A46009432
:104DF000CDF84A304FF60B730C94ADF82C302346A7
:104E0000CDE9180140F601314046ADF81810069979
:104E1000CDE90D4402F0BAF92146404602F0A8FA65
:104E2000A7E700BF04020404040604030704010BFF
:104E30002DE9F04704462DED028B82B000294DD0BC
:104E4000012140F2011200230091ADF804208DF8F9
:104E50000630364A0127364B04F10409354904F17E
:104E60002908626040F20272A36040F60663E160C6
:104E700004F1250AA4F82520A4F82930278284F813
:104E8000277084F82B7005F039FE054605F094FC78
:104E90006946064650BB4DB304F130008DF80670EC
:104EA00005F0ACFD072D3CD104F114052046FFF7B9
:104EB00039FF284601F028F92846B0EE408A01F073
:104EC00011F9D0ED007AF8EE677A88EE277A84ED52
:104ED0000E7A02B0BDEC028BBDE8F08740F2011300
:104EE00000918DF80610ADF80430B2E704F13000FF
:104EF00005F084FD072D11D04946204602F0F4FE4E
:104F00000EB9002DD0D1504602F03CFA404602F0D6
:104F100039FA04F1120000F079F9C5E7002EF2D158
:104F2000C2E74946204602F0DFFEBDE70508050955
:104F300005070506050A060610B584B003460124D8
:104F4000ADF8040003A8ADF80C30ADF80E4002F047
:104F500019FA214603A802F0FFFA204605F02AFCC0
:104F6000002103A802F0F8FA204605F023FC2146B0
:104F700003A802F0F1FA04B010BD00BF10B5C2F3EF
:104F8000002384B00C46017C8DF80D2043EA4402D6
:104F9000FA2402238DF80C2003AA009402F0F2FCFC
:104FA00018B10124204604B010BD04460A2005F0C3
:104FB00001FC204604B010BD034670B543F8042B35
:104FC000044684B007C983E80700A37983B91A218E
:104FD0000B461E22FA2523742046ADF80C2002232E
:104FE00003AA009502F0CEFC28B1012004B070BDE8
:104FF0001B210B46EDE70A2005F0DCFB4FF4B8520D
:1050000000950223ADF80C20204603AA217C02F073
:10501000B9FC0028E9D10A2005F0CCFB41F202726C
:1050200000950223ADF80C20204603AA217C02F053
:10503000A9FC0028D9D10A2005F0BCFB0422009568
:105040000223ADF80C20204603AA217C02F09AFC32
:105050000028CAD10A2005F0ADFB062200950223E4
:10506000ADF80C20204603AA217C02F08BFC00281E
:10507000BBD10A2005F09EFB41F2082200950223D5
:10508000ADF80C20204603AA217C02F07BFC00280E
:10509000ABD10A20064605F08DFB0095022303AA3A
:1050A000217C2046ADF80C6002F06CFC00289CD1FD
:1050B000304605F07FFB009522790C232046002A1C
:1050C0008DF80C3003AA4FF0020314BF6221422175
:1050D0008DF80D10217C02F055FC002885D130465A
:1050E00005F068FB2279D4E902310B43DBB20AB93F
:1050F00043F0400362790AB143F020030E22FA25FF
:105100008DF80D302046009502238DF80C2003AA5F
:10511000217C02F037FC00287FF467AF0A2005F0FD
:1051200049FB102200950223ADF80C20204603AA6B
:10513000217C02F027FC00287FF457AF0A2005F0FD
:1051400039FB122100950223ADF80C1003AA217C33
:10515000204602F017FC00287FF447AF0A2005F034
:1051600029FB012209212046FFF708FF003818BF5C
:1051700001203BE7F0B5102387B0234C0122002526
:105180000126002702A920460195CDE902234FF40C
:105190008052CDE904670CF009FE642006F088F81F
:1051A00002A94FF480522046CDE904670226102759
:1051B000CDE902670CF0FAFD0322102302A9204674
:1051C000CDE9022300230422CDE904234FF48052C9
:1051D0000CF0ECFD40F23223042202A901931023CB
:1051E0002046CDE90223019A012305924FF4805213
:1051F00004930CF0DBFD40F6060120460CF0F6FDB2
:10520000284607B0F0BD00BFB4B001241C4B0022FB
:105210001C494FF0400C30B5054689B0022059605A
:1052200007219A601A620124DA620A224FF4006EA2
:10523000DC6006922022CDE9000104200821CDE99E
:10524000020103201021CDE9040108206946C3E9C9
:1052500004024FF4C072181DC3E906C24FF4805215
:10526000C3E909E20CF078FD38B92846FFF782FF60
:10527000003818BF012009B030BD204609B030BD4C
:10528000B0B0012440410052614A0021D0B51368FA
:105290008EB00A91002B40F0B9805E4B01214FF691
:1052A00083700C2411600221D3F8D4200026032738
:1052B00042F48052C3F8D420D3F8D42002F48052B0
:1052C0000092009AD3F8E02042F01002C3F8E020E8
:1052D000D3F8E02002F010020192019AD3F8E02006
:1052E00042F04002C3F8E020D3F8E02002F0400290
:1052F0000292029AD3F8E02042F00802C3F8E020BC
:10530000D3F8E02002F008020392039AD3F8E020D9
:1053100042F48072C3F8E020D3F8E02002F48072F7
:105320000492049AD3F8E02042F08002C3F8E0200F
:10533000D3F8E02002F080020592059AD3F8E0202D
:1053400042F02002C3F8E020D3F8E02002F020026F
:105350000692069AD3F8E02042F00402C3F8E02057
:10536000D3F8E0300C9403F0040307930323079A67
:105370000B93CDE9080108A9274807F04BFF48F235
:105380003712022308A925480C94CDE90823CDE95A
:105390000A6707F03FFF4CF20372022308A9204876
:1053A0000C94CDE90823CDE90A6707F033FF40F2FA
:1053B000FF62022308A91B480C94CDE90823CDE91C
:1053C0000A6707F027FF4FF60C72022308A9164858
:1053D0000C94CDE90823CDE90A6707F01BFF4FF6CF
:1053E0003F02022308A911480C94CDE90823CDE916
:1053F0000A6707F00FFF2022022308A90A480C942D
:10540000CDE90A67CDE9082307F004FF0EB0D0BD4F
:10541000ACB0012400440258001002580018025891
:10542000000C025800200258001C025800140258B8
:105430002DE9F04FDFF8108406460D46144608F1BA
:1054400018002DED028B89B000AF03F0C5F8D8F835
:10545000183073B3D8F81C30D8F80490002B436987
:105460000BBF4FF0080A4FF0100A4FF0020B4FF03D
:10547000040BB9F1000F2AD0A200EA46012B02F179
:10548000070222F00702ADEB020D6846ADEB020DFC
:10549000694600F03F81022B00F0D680002B6FD0D0
:1054A0002246C847D5462437BD46BDEC028BBDE831
:1054B000F08FD8F81C30002BF5D0D8F804904FF0BE
:1054C000080A4FF0020B4369B9F1000FD4D1FB6118
:1054D000D8F80030BB61002BE5D0D54803F0EEF8DA
:1054E0006B46BBF1020F786108EE103AFB6900F0E1
:1054F00083816A465146A2EBC40295466200EA46A1
:10550000B2FBFBF2AAEBC40085460AEB8200EE4632
:10551000F861ADEB010DF8690EEB820CC7F810C015
:10552000EC46ADEB010D00EB8201CCF80400CCF8A9
:10553000081001EB82013869E946CCF80C1000EB49
:105540008201CCF800A001EB8202C9E900E0C9E9C0
:105550000212012B00F06483022B00F06C82002BFE
:1055600000F08081620849466046BB69984718EEA2
:10557000103A24379D46BD46BDEC028BBDE8F08F46
:10558000002C8DD01A46D8ED0C6A9FEDB27A844675
:10559000331D36F922E00CF1080C07EE90EA33F9DE
:1055A00022E00232F8EEE77A944267EE877A67EEFD
:1055B000A67A4CED027A07EE90EAF8EEE77A67EE0B
:1055C000877A67EEA67A4CED017AE2D8F961224635
:1055D000C847984ED8ED0D6A0020F9692B1D9FED44
:1055E0009E7A9FED9E6ADFED9E5A22E0F4EEC67A27
:1055F000F1EE10FAC0F2C88447F6FE72D1ED017ADE
:1056000045F8202066EEA77AF4EEC77AF1EE10FA9C
:1056100040F2F080F4EEC67AF1EE10FAC0F2D584D2
:1056200047F6FE7243F820200230083184427FF6AC
:1056300039AFD1ED007A66EEA77AF4EEC77AF1EED3
:1056400010FAD3D83246D9E7002C3FF429AFD8ED71
:105650000C6A84469FED787A0022331D8E4656F8F8
:1056600022100CF1080C07EE901A53F822100232A7
:10567000F8EEE77A944267EE877A67EEA67A4CED09
:10568000027A07EE901AF8EEE77A67EE877A67EE0D
:10569000A67A4CED017AE2D871462246C7F81CE0A2
:1056A000C847664ED8ED0D6A0020F9692B1D9FEDA5
:1056B0006A7A9FED6A6ADFF894C120E0F4EEC67A58
:1056C000F1EE10FAC0F279843246D1ED017A45F854
:1056D000202066EEA77AF4EEC77AF1EE10FA40F2D7
:1056E0008780F4EEC67AF1EE10FAC0F25E8432469C
:1056F00043F820200230083184427FF6D3AED1ED4A
:10570000007A66EEA77AF4EEC77AF1EE10FAD5D8F1
:105710006246DAE7002C3FF4C3AED8ED0C6A864649
:105720009FED477A4FF0000C331D56F82C200EF1F8
:10573000080E82F40002A2F5000207EE902A53F848
:105740002C200CF1020CF8EEE77A82F4000264459A
:10575000A2F5000267EE877A67EEA67A4EED027A2E
:1057600007EE902AF8EEE77A67EE877A67EEA67A78
:105770004EED017AD9D8F9612246C847314ED8EDAD
:105780000D6A0020F9692B1D9FED337A9FED336A76
:10579000DFF8BCC01FE0F4EEC67AF1EE10FAC0F2FA
:1057A000FC833246D1ED017A45F8202066EEA77AD7
:1057B000F4EEC77AF1EE10FA18D9F4EEC67AF1EEEB
:1057C00010FAC0F2DA83324643F820200230083162
:1057D00084427FF667AED1ED007A66EEA77AF4EEEA
:1057E000C77AF1EE10FAD6D86246DBE76246EBE7FD
:1057F00062467DE7324615E7A100D64662080731CA
:1058000021F00701ADEB010DEA46ADEB010D694654
:10581000ADEB0E0D0AEB8200EC46ADEB0E0D01EB8D
:105820008202F861E946CCE900A0C9E9001290E6DD
:1058300004B101240280FFFF000000300082FF7FDE
:105840000000003482FF7F00E8B00124007E008069
:105850007E0080FF0000003804FF7FBF04FF7F3F11
:1058600000FEFF46002C00F0C982BBF1020FD8F801
:10587000242000F0FA827969C7F8049002EB810EC7
:105880005FED0C5A8A00DCF808100EF104007A6112
:105890001A46DCF80C303B61331DD7F810903D619F
:1058A000FD69C7E902CB8C46834636F92210D8ED54
:1058B0000C7A06EE101A33F9221006EE901A3EF911
:1058C0002210B8EEC66A07EE101AF8EEE66A3BF947
:1058D0002210B8EEC77A26EE256A66EEA56A27EE94
:1058E000257A26EE276A66EEA76A27EE277A07EE64
:1058F000901A51080232F8EEE77A0AEB81009442DE
:1059000080ED006A05EB810067EEA57AC0ED006AC4
:105910000CEB810009EB810180ED007A98ED0C7AA7
:1059200067EE877AC1ED007ABFD8D7F804903D6959
:10593000D7E902CB60466208BB6949469847D8F868
:105940002C307A69D8ED0D6A1A441FED3D7A1FEDAF
:105950003D6A2B1D904602F1040A5FED3F5A00227A
:10596000A84ED9E900EC51E0F4EEC67AF1EE10FA57
:10597000C0F2C78247F6FE7045F822000CEB01002A
:10598000D0ED007A66EEA77AF4EEC77AF1EE10FA5F
:105990004BD9F4EEC67AF1EE10FAC0F2BA8247F6AD
:1059A000FE70BBF1020F43F822002BD0D9F808009B
:1059B0000844D0ED007A66EEA77AF4EEC77AF1EEED
:1059C00010FA36D9F4EEC67AF1EE10FAC0F2CD82B2
:1059D00047F6FE7048F82200D9F80C000144D1EDDA
:1059E000007A66EEA77AF4EEC77AF1EE10FA1ED9C5
:1059F000F4EEC67AF1EE10FAC0F2AF8247F6FE710D
:105A00004AF82210023294427FF6B1AD51080EEBF3
:105A100081008900D0ED007A66EEA77AF4EEC77AAD
:105A2000F1EE10FAA0D83046A6E73046B9E7314685
:105A3000E6E73046CEE7002C00F0E081BBF1020F34
:105A4000D8F8243000F0E1817A69DCF8081003EB23
:105A5000820EC7F804909300DFED6B5A0EF104003C
:105A600000227B61DCF80C303B61331DD7F81090CD
:105A70003D61FD69C7E902CB8C46834656F822108A
:105A8000D8ED0C7A07EE101A53F82210B8EEC76A58
:105A900007EE101A5EF82210F8EEC76A07EE101A29
:105AA00026EE256A5BF82210B8EEC77A66EEA56A84
:105AB00026EE276A27EE257A66EEA76A27EE277A72
:105AC00007EE901A51080232F8EEE77A0AEB8100ED
:105AD000944280ED006A05EB810067EEA57AC0ED87
